:020000040800F2
:1000000000C00120B51000088D0F00088F0F0008F8
:10001000910F0008930F0008950F000800000000E2
:10002000000000000000000000000000970F000822
:10003000990F0008000000009B0F00089D0F0008AA
:100040000511000805110008051100080511000838
:100050000511000805110008051100080511000828
:100060000511000805110008051100080511000818
:100070000511000805110008051100080511000808
:1000800005110008051100080511000805110008F8
:1000900005110008051100080511000805110008E8
:1000A00005110008051100080511000805110008D8
:1000B00005110008051100080511000805110008C8
:1000C00005110008051100080511000805110008B8
:1000D00005110008051100080511000805110008A8
:1000E0000511000805110008051100080511000898
:1000F0000511000805110008051100080511000888
:1001000000000000051100080000000005110008B3
:100110000511000805110008051100080511000867
:100120000511000805110008051100080511000857
:100130000511000800000000000000000511000883
:100140000511000805110008000000000000000073
:10015000000000000000000000000000000000009F
:100160000000000000000000000000000511000871
:100170000511000805110008051100080511000807
:100180000511000805110008000000000000000033
:100190000000000000000000051100080511000823
:1001A0000000000000000000051100080511000813
:1001B00005110008051100080511000805110008C7
:1001C00005110008051100080511000805110008B7
:0801D0000511000805110008EB
:1001D80010B504464FF48042044900F01CF821464B
:1001E80004F1080000F020F8204610BD0004004883
:1001F80008B5083000F01AF808BD00BF10B50C208B
:1002080000F07DFF0446FFF7E3FF204610BD08B568
:10021800FFF7EEFF08BD01608280704708B581884E
:10022800006800F022FA08BD0160704708B5006850
:10023800FFF7F4FF08BD000008B5064B1A783AB975
:10024800054A1AB10548AFF30080024B01221A7023
:1002580008BD00BF5C00002000000000BC130008BF
:1002680008B5034B1BB103490348AFF3008008BD31
:100278000000000060000020BC13000870B586B0C4
:1002880001AD0024019402940394049405940F4B47
:10029800DA6C42F00202DA64DB6C03F002030093CA
:1002A800009B0B4E22464FF48041304600F0D8F9AF
:1002B8004FF4804301930123029303940494294645
:1002C800304600F0D3F806B070BD00BF0010024001
:1002D80000040048104B1B680BB90120704710B58B
:1002E80004460E4A10684FF47A72B2FBF3F3B0FB7F
:1002F800F3F000F0A7F868B90F2C01D901200AE043
:10030800024621464FF0FF3000F08CF8044B1C6089
:10031800002000E0012010BD00000020080000209F
:100328000400002010B5032000F06AF80F20FFF742
:10033800D1FF18B101231C46204610BD044600F029
:100348009DF9F9E7034A1368034909680B441360E8
:10035800704700BF7800002000000020014B18689B
:10036800704700BF7800002038B50446FFF7F6FF55
:100378000546B4F1FF3F02D0044B1B681C44FFF74D
:10038800EDFF401BA042FAD338BD00BF000000209B
:10039800002808DB0901C9B200F1604000F561409E
:1003A80080F80013704700F00F000901C9B2014B33
:1003B8001954704714ED00E000B500F00700A0F1F3
:1003C800030CBCF1040F07D8C0F1070E043006284F
:1003D80006D84FF0000C03E04FF0040E4FF0000C6D
:1003E8004FF0FF3303FA0EF021EA000101FA0CF195
:1003F80003FA0CF322EA030241EA020000BD0000FE
:10040800074AD36823F4E0631B041B0C000200F4C2
:10041800E060034343F0BF6343F40033D3607047A5
:1004280000ED00E010B50446054BD868C0F3022083
:10043800FFF7C2FF01462046FFF7AAFF10BD00BF25
:1004480000ED00E00138B0F1807F0BD24FF0E023DF
:100458005861054AF02182F823100020986107228C
:100468001A6170470120704700ED00E070B582B056
:1004780000236DE085684FEA430E032404FA0EF466
:1004880025EA0405CC6804FA0EF42C438460446819
:1004980024EA0C044D68C5F3001C0CFA03FC4CEA72
:1004A8000404446068E08C68012C6BD178E0DD08B6
:1004B800083550F8254003F0070C4FEA8C0C4FF034
:1004C8000F0E0EFA0CFE24EA0E0E0C6904FA0CF458
:1004D80044EA0E0440F8254068E0052400E00024C2
:1004E80004FA0EF42C430CF1020C594D45F82C403B
:1004F800584CA4686FEA020C24EA02054E6816F408
:10050800801F01D042EA0405524CA560E4680CEA59
:1005180004054E6816F4001F01D042EA04054D4C4C
:10052800E56064680CEA04054E6816F4003F01D0E3
:1005380042EA0405474C656024680CEA04054E68E5
:1005480016F4803F01D042EA0405424A156001339F
:100558000A6832FA03F479D04FF0010C0CFA03FC64
:100568001CEA0202F3D04C6804F0030E0EF1FF3EC1
:10057800BEF1010F7FF67EAF4C6804F0030CBCF1AE
:10058800030F90D0C5685C004FF0030C0CFA04FC14
:1005980025EA0C0E8D6805FA04FC4CEA0E04C460CA
:1005A8004C6804F0030CBCF1020F80D005685C00B5
:1005B8004FF0030C0CFA04FC25EA0C0E4D6805F00C
:1005C800030C0CFA04FC4CEA0E0404604C6814F4A6
:1005D800403FBCD0204C256E45F001052566246EB1
:1005E80004F001040194019C4FEA930C0CF10205FC
:1005F800174C54F8255003F0030E4FEA8E0E0F24C3
:1006080004FA0EF425EA0405B0F1904F3FF467AF01
:10061800124CA04212D004F58064A04210D004F518
:100628008064A0420ED004F58064A0420CD004F58A
:100638008064A0423FF451AF062451E701244FE7FC
:1006480002244DE703244BE7042449E702B070BDB8
:10065800000001400004014000100240000400486E
:100668000AB18161704781627047436901EA0302F8
:1006780021EA030141EA02418161704782B00A4BD5
:100688001A6E42F001021A661A6E02F00102009216
:10069800009A9A6D42F080529A659B6D03F08053E0
:1006A8000193019B02B0704700100240002836D128
:1006B8003E4B1B6803F4C063B3F5806F08D03B4A18
:1006C800D2F8803023F48073C2F88030002070475D
:1006D800364AD2F8803023F48073C2F88030136829
:1006E80023F4C06343F400731360314B1B68322258
:1006F80002FB03F32F4AA2FB03239B0C013300E008
:10070800013B2A4A526912F4806F01D0002BF7D1BD
:10071800264B5B6913F4806F44D100207047B0F515
:10072800007F08D0214A136823F4C06343F4806330
:100738001360002070471D4B1B6803F4C063B3F5BA
:10074800806F08D0194AD2F8803043F48073C2F819
:10075800803000207047154AD2F8803043F4807307
:10076800C2F88030136823F4C06343F40073136045
:100778000F4B1B68322202FB03F30E4AA2FB032332
:100788009B0C013300E0013B084A526912F4806F68
:1007980001D0002BF7D1054B5B6913F4806F03D1AF
:1007A8000020704703207047032070470070004006
:1007B8000800002083DE1B43124BDA6802F00302B4
:1007C800DB68C3F303130133032A11D00E48B0FBCF
:1007D800F3F00C4BDB68C3F3062303FB00F0094B73
:1007E800DB68C3F3416301335B00B0FBF3F0704790
:1007F8000648B0FBF3F0034BDB68C3F3062303FBA7
:1008080000F0ECE7001002400024F40000127A0027
:10081800002800F0518270B582B00446036813F0D6
:10082800010F37D0A54A936803F00C03D26802F091
:1008380003020C2B23D0082B23D06368B3F5803F29
:100848004ED0B3F5A02F51D09C4B1A6822F48032B9
:100858001A601A6822F480221A606368002B52D04A
:10086800FFF77CFD0546954B1B6813F4003F11D13B
:10087800FFF774FD401B6428F5D9032025E2032AFD
:10088800D9D18E4B1B6813F4003F03D06368002B4B
:1008980000F01482236813F0020F5DD0874A936832
:1008A80003F00C03D26802F003020C2B3AD0042B9D
:1008B8003AD0E368002B75D0804A136843F48073FC
:1008C8001360FFF74BFD05467C4B1B6813F4806FE4
:1008D8005FD1FFF743FD401B0228F5D90320F4E15F
:1008E800764A136843F480331360B6E703F1804314
:1008F800A3F53C331A6842F480221A601A6842F45D
:1009080080321A60A9E7FFF729FD05466B4B1B6883
:1009180013F4003FBED0FFF721FD401B6428F5D932
:100928000320D2E1022AC2D1644B1B6813F4806F02
:1009380003D0E368002B00F0C381604A536823F0BA
:10094800FE43216943EA016353605D4B1868FFF772
:10095800C1FC002840F0B681236813F0080F4CD082
:1009680063699BB3554AD2F8943043F00103C2F847
:100978009430FFF7F3FC0546504BD3F8943013F04E
:10098800020F3AD1FFF7EAFC401B0228F4D90320F2
:100998009BE14A4A536823F0FE43216943EA016315
:1009A8005360D9E7454A136823F480731360FFF74F
:1009B800D5FC0546414B1B6813F4806FCCD0FFF77C
:1009C800CDFC401B0228F5D903207EE13B4AD2F832
:1009D800943023F00103C2F89430FFF7BFFC0546BA
:1009E800364BD3F8943013F0020F06D0FFF7B6FC5D
:1009F800401B0228F4D9032067E1236813F0040F91
:100A080000F083802D4B9B6D13F0805F37D12B4B0B
:100A18009A6D42F080529A659B6D03F08053019362
:100A2800019B01231E46274B1B6813F4807F29D0A6
:100A3800A368012B3AD0052B46D0204BD3F8902041
:100A480022F00102C3F89020D3F8902022F004028B
:100A5800C3F89020A368002B44D0FFF77FFC05461D
:100A6800164BD3F8903013F0020F4DD1FFF776FCF8
:100A7800401B41F288339842F2D9032025E1002334
:100A88001E46D0E70F4A136843F480731360FFF7DC
:100A980065FC05460B4B1B6813F4807FC8D1FFF734
:100AA8005DFC401B0228F5D903200EE1034AD2F869
:100AB800903043F00103C2F89030CBE700100240B9
:100AC8000400002000700040884BD3F8902042F0CA
:100AD8000402C3F89020D3F8902042F00102C3F832
:100AE8009020B7E7FFF73AFC0546804BD3F89030E3
:100AF80013F0020F08D0FFF731FC401B41F2883396
:100B08009842F2D90320E0E0E6B9236813F0200FF9
:100B180035D0A369E3B1754AD2F8983043F00103A0
:100B2800C2F89830FFF71AFC0546704BD3F8983096
:100B380013F0020F23D1FFF711FC401B0228F4D950
:100B48000320C2E0694A936D23F080539365DCE784
:100B5800664AD2F8983023F00103C2F89830FFF7BC
:100B6800FDFB0546614BD3F8983013F0020F06D011
:100B7800FFF7F4FB401B0228F4D90320A5E0E36942
:100B8800002B00F0A180594A926802F00C020C2A4E
:100B980064D0022B13D0554A136823F08073136076
:100BA800FFF7DCFB0446514B1B6813F0007F4ED067
:100BB800FFF7D4FB001B0228F5D9032085E04B4A38
:100BC800136823F080731360FFF7C8FB0546474B93
:100BD8001B6813F0007F06D0FFF7C0FB401B0228FC
:100BE800F5D9032071E0414AD36841491940236A85
:100BF800606A013843EA0013A06A43EA0023206BC5
:100C08004008013843EA4053606B4008013843EA22
:100C18004063E06A43EAC0631943D160136843F054
:100C280080731360D36843F08073D360FFF796FB3B
:100C380004462E4B1B6813F0007F06D1FFF78EFB8E
:100C4800001B0228F5D903203FE000203DE0274A99
:100C5800D168284B0B40D360002036E0012B36D0FA
:100C6800224BDB6803F00301226A914231D103F081
:100C7800F002616A0139B2EB011F2CD103F4FE4284
:100C8800A16AB2EB012F28D103F07842E16AB2EBF6
:100C9800C16F24D103F4C001226B5208013AB1EBB1
:100CA800425F1ED103F0C063626B5208013AB3EB96
:100CB800426F18D1002008E001207047012004E0AD
:100CC800012002E0012000E0184602B070BD0120BA
:100CD800FBE70120F9E70120F7E70120F5E701200C
:100CE800F3E70120F1E70120EFE700BF0010024021
:100CF8000C809F01FCFFEEFE1E4B9B6803F00C036B
:100D0800042B33D01B4B9B6803F00C03082B2FD00C
:100D1800184B9B6803F00C030C2B01D00020704784
:100D2800144BDA6802F00302DB68C3F303130133E0
:100D3800032A11D01048B0FBF3F00E4BDB68C3F365
:100D4800062303FB00F00B4BDB68C3F3416301335D
:100D58005B00B0FBF3F070470848B0FBF3F0054BBD
:100D6800DB68C3F3062303FB00F0ECE70248704797
:100D780002487047001002400024F40000127A0074
:100D8800002800F0ED80F8B50C460546774B1B6847
:100D980003F00F038B420BD2744A136823F00F033E
:100DA8000B431360136803F00F038B4240F0DA80A3
:100DB8002B6813F001031F4665D06B68032B30D0F6
:100DC800022B50D06A4B1B6813F4806F00F0CC8064
:100DD800FFF792FF674B984252D9654A936823F010
:100DE800F00343F08003936080231F46604A9368B2
:100DF80023F0030369680B439360FFF7AFFA0646D5
:100E08005B4B9B6803F00C036A68B3EB820F3AD024
:100E1800FFF7A4FA801B41F288339842F0D90320E7
:100E28007DE0534B1B6813F0007F01D1012076E071
:100E3800FFF7C2FC4F4B98421CD94D4B9B6813F0EF
:100E4800F00F06D02B6813F002031F46CED0AB6814
:100E58009BB9474A936823F0F00343F080039360FB
:100E680080231F46C2E7424B1B6813F4003FAFD1F3
:100E7800012054E000231F46B8E700231F46B5E7CA
:100E880000231F46B2E72B6813F0020F48D013F077
:100E9800040F04D0364A936843F4E06393602B68E8
:100EA80013F0080F06D0324A936823F47C5343F4B6
:100EB800E06393602E4A936823F0F003A9680B431C
:100EC80093602A4B1B6803F00F03A34230D82B68AA
:100ED80013F0040F06D0264A936823F4E063E96808
:100EE8000B4393602B6813F0080F07D0204A9368D0
:100EF80023F46053296943EAC1039360FFF7FCFEBA
:100F08001B4B9B68C3F303131B4AD35C03F01F03FB
:100F1800D8401A4B18601A4B1868FFF7DBF9F8BD70
:100F2800802FCED1124A936823F0F0039360C8E76C
:100F38000E4A136823F00F0323431360FFF70EFADA
:100F480006460A4B1B6803F00F03A342BFD0FFF706
:100F580005FA801B41F288339842F2D90320DEE774
:100F6800012070470120DAE70120D8E7002002407D
:100F78000010024000B4C404D41300080800002084
:100F880004000020FEE7FEE7FEE7FEE7FEE7704705
:100F98007047704708B5FFF7D5F908BD01207047BD
:100FA80008B500F0DBF9162303604FF0FF3008BDE9
:100FB80008B54FF0FF31FFF7F3FFFEE708B503462A
:100FC8000D4A0E490E48006840B10D4800680344B8
:100FD800521A934208D80A4A136008BD0848DFF835
:100FE80024C0C0F800C0F0E700F0B8F90C23036093
:100FF8004FF0FF30F1E700BF00C0012000040000FF
:101008007C000020D0010020034AD2F8883043F445
:101018007003C2F88830704700ED00E072B6FEE752
:1010280030B595B006AD38220021284600F03AF9CF
:101038000024019402940394049405944FF40070DE
:10104800FFF734FB022306934FF480730993402380
:101058000A930D942846FFF7DBFB68B90F23019329
:1010680001230293014603900490059001A8FFF71D
:1010780087FE18B915B030BDFFF7D0FFFFF7CEFFD8
:1010880008B5FFF74FF9FFF7CBFFFFF7F7F8FFF7C2
:10109800B5F8054B1860044B1868FFF7B8F84FF41B
:1010A8007A70FFF761F9F6E7800000200D48854661
:1010B800FFF7AAFF0C480D490D4A002302E0D45857
:1010C800C4500433C4188C42F9D30A4A0A4C00238A
:1010D80001E013600432A242FBD300F045F9FFF7A8
:1010E800CFFFFEE700C00120000000205C000020C8
:1010F800EC1300085C000020D0010020FEE7012866
:1011080038BF012010B50446204600F019F800B198
:1011180010BD00F005F808B900F00AF88047F3E7B9
:10112800024B1868BFF35B8F704700BF8400002034
:1011380008B5062000F0E6F80120FFF739FF0000A7
:10114800024B0146186800F025B800BF0C000020CB
:1011580070B50F4C0E462168054611B900F0EEF83F
:1011680020603146284600F0E9F8431C03D14FF0CF
:10117800FF34204670BDC41C24F00304A042F8D0FC
:10118800211A284600F0DAF80130F2D1EFE700BF63
:10119800880000202DE9F843CD1C25F0030508350B
:1011A8000C2D38BF0C25002D064601DBA94204D9B9
:1011B8000C2333600020BDE8F883334F00F066F855
:1011C8003B681C463CBB29463046FFF7C1FF431C21
:1011D800044656D13C68A046B8F1000F40D1002C17
:1011E80049D023684146304604EB030900F0A6F8CD
:1011F800814540D121686D1A29463046FFF7A8FF7E
:10120800013038D023682B4423603B685A685ABBA6
:10121800C7F800800EE02268521B1ED40B2A16D98C
:101228006119A342256018BF5960636808BF396017
:1012380062514B60304600F02FF804F10B00231D7B
:1012480020F00700C21A1CBF1B1AA350B3E762683C
:10125800A3420CBF3A605A60ECE723466468B1E7E2
:101268004446D8F80480B7E71A465B68A342FBD126
:1012780000235360DEE70C233360304600F00CF89F
:1012880098E70560D6E700BF8C000020014800F011
:101298008FB800BFCC010020014800F08AB800BF19
:1012A800CC01002002440346934200D1704703F862
:1012B800011BF9E71F2938B505460C4604D9162342
:1012C80003604FF0FF3038BDC26B12B152F82130C5
:1012D8004BB9284600F030F8224601462846BDE8BA
:1012E800384000F017B8012B0AD0591C03D1162337
:1012F80003600120E7E7002142F8241020469847C0
:101308000020E0E7024B01461868FFF7D3BF00BF93
:101318000C00002038B5074C002305460846114646
:101328002360FFF73DFE431C02D1236803B12B6005
:1013380038BD00BFC8010020FFF730BE38B5064CE5
:101348000023054608462360FFF738FE431C02D1F8
:10135800236803B12B6038BDC8010020014B186811
:10136800704700BF0C00002070B50D4B0D4C0026D7
:101378001D1BB6EBA50F09D100F01CF80A4C0B4B4E
:1013880000261D1BB6EBA50F05D170BD54F8043B14
:1013980098470136EDE754F8043B98470136F1E7E2
:1013A800E4130008E4130008E4130008E813000835
:1013B80070477047F8B500BFF8BC08BC9E46704738
:0C13C800F8B500BFF8BC08BC9E4670479A
:1013D40000000000000000000102030406070809E1
:0413E4006902000892
:0413E80041020008B6
:1013EC0001000000100000000024F4001000002098
:1013FC000000000090000020F80000206001002098
:10140C0000000000000000000000000000000000D0
:10141C0000000000000000000000000000000000C0
:10142C0000000000000000000000000000000000B0
:0C143C00000000000000000000000000A4
:04000005080010B52A
:00000001FF
